{
  "_format": "hh-sol-artifact-1",
  "contractName": "FishingRegistry",
  "sourceName": "contracts/FishingRegistry.sol",
  "abi": [
    {
      "inputs": [
        {
          "internalType": "uint256",
          "name": "",
          "type": "uint256"
        }
      ],
      "name": "catches",
      "outputs": [
        {
          "internalType": "string",
          "name": "fishermanName",
          "type": "string"
        },
        {
          "internalType": "string",
          "name": "fishermanID",
          "type": "string"
        },
        {
          "internalType": "string",
          "name": "licenseNumber",
          "type": "string"
        },
        {
          "internalType": "string",
          "name": "species",
          "type": "string"
        },
        {
          "internalType": "string",
          "name": "location",
          "type": "string"
        },
        {
          "internalType": "uint256",
          "name": "timestamp",
          "type": "uint256"
        },
        {
          "internalType": "uint256",
          "name": "quantity",
          "type": "uint256"
        },
        {
          "internalType": "string",
          "name": "fishingMethod",
          "type": "string"
        },
        {
          "internalType": "uint256",
          "name": "batchId",
          "type": "uint256"
        }
      ],
      "stateMutability": "view",
      "type": "function"
    },
    {
      "inputs": [
        {
          "internalType": "uint256",
          "name": "_batchId",
          "type": "uint256"
        }
      ],
      "name": "getCatchByBatchId",
      "outputs": [
        {
          "internalType": "string",
          "name": "fishermanName",
          "type": "string"
        },
        {
          "internalType": "string",
          "name": "fishermanID",
          "type": "string"
        },
        {
          "internalType": "string",
          "name": "licenseNumber",
          "type": "string"
        },
        {
          "internalType": "string",
          "name": "species",
          "type": "string"
        },
        {
          "internalType": "string",
          "name": "location",
          "type": "string"
        },
        {
          "internalType": "uint256",
          "name": "timestamp",
          "type": "uint256"
        },
        {
          "internalType": "uint256",
          "name": "quantity",
          "type": "uint256"
        },
        {
          "internalType": "string",
          "name": "fishingMethod",
          "type": "string"
        }
      ],
      "stateMutability": "view",
      "type": "function"
    },
    {
      "inputs": [],
      "name": "numCatches",
      "outputs": [
        {
          "internalType": "uint256",
          "name": "",
          "type": "uint256"
        }
      ],
      "stateMutability": "view",
      "type": "function"
    },
    {
      "inputs": [
        {
          "internalType": "string",
          "name": "_fishermanName",
          "type": "string"
        },
        {
          "internalType": "string",
          "name": "_fishermanID",
          "type": "string"
        },
        {
          "internalType": "string",
          "name": "_licenseNumber",
          "type": "string"
        },
        {
          "internalType": "string",
          "name": "_species",
          "type": "string"
        },
        {
          "internalType": "string",
          "name": "_location",
          "type": "string"
        },
        {
          "internalType": "uint256",
          "name": "_timestamp",
          "type": "uint256"
        },
        {
          "internalType": "uint256",
          "name": "_quantity",
          "type": "uint256"
        },
        {
          "internalType": "string",
          "name": "_fishingMethod",
          "type": "string"
        },
        {
          "internalType": "uint256",
          "name": "_batchId",
          "type": "uint256"
        }
      ],
      "name": "registerCatch",
      "outputs": [],
      "stateMutability": "nonpayable",
      "type": "function"
    }
  ],
  "bytecode": "0x608060405234801561001057600080fd5b50611387806100206000396000f3fe608060405234801561001057600080fd5b506004361061004c5760003560e01c806341e545e41461005157806346f563731461006d5780637dab2167146100a5578063868604c8146100c3575b600080fd5b61006b60048036038101906100669190610bc3565b6100fa565b005b61008760048036038101906100829190610d35565b610217565b60405161009c99989796959493929190610df0565b60405180910390f35b6100ad610595565b6040516100ba9190610ea7565b60405180910390f35b6100dd60048036038101906100d89190610d35565b61059b565b6040516100f1989796959493929190610ec2565b60405180910390f35b6040518061012001604052808a815260200189815260200188815260200187815260200186815260200185815260200184815260200183815260200182815250600080600154815260200190815260200160002060008201518160000190816101639190611176565b5060208201518160010190816101799190611176565b50604082015181600201908161018f9190611176565b5060608201518160030190816101a59190611176565b5060808201518160040190816101bb9190611176565b5060a0820151816005015560c0820151816006015560e08201518160070190816101e59190611176565b5061010082015181600801559050506001600081548092919061020790611277565b9190505550505050505050505050565b600060205280600052604060002060009150905080600001805461023a90610f99565b80601f016020809104026020016040519081016040528092919081815260200182805461026690610f99565b80156102b35780601f10610288576101008083540402835291602001916102b3565b820191906000526020600020905b81548152906001019060200180831161029657829003601f168201915b5050505050908060010180546102c890610f99565b80601f01602080910402602001604051908101604052809291908181526020018280546102f490610f99565b80156103415780601f1061031657610100808354040283529160200191610341565b820191906000526020600020905b81548152906001019060200180831161032457829003601f168201915b50505050509080600201805461035690610f99565b80601f016020809104026020016040519081016040528092919081815260200182805461038290610f99565b80156103cf5780601f106103a4576101008083540402835291602001916103cf565b820191906000526020600020905b8154815290600101906020018083116103b257829003601f168201915b5050505050908060030180546103e490610f99565b80601f016020809104026020016040519081016040528092919081815260200182805461041090610f99565b801561045d5780601f106104325761010080835404028352916020019161045d565b820191906000526020600020905b81548152906001019060200180831161044057829003601f168201915b50505050509080600401805461047290610f99565b80601f016020809104026020016040519081016040528092919081815260200182805461049e90610f99565b80156104eb5780601f106104c0576101008083540402835291602001916104eb565b820191906000526020600020905b8154815290600101906020018083116104ce57829003601f168201915b50505050509080600501549080600601549080600701805461050c90610f99565b80601f016020809104026020016040519081016040528092919081815260200182805461053890610f99565b80156105855780601f1061055a57610100808354040283529160200191610585565b820191906000526020600020905b81548152906001019060200180831161056857829003601f168201915b5050505050908060080154905089565b60015481565b6060806060806060600080606060005b6001548110156109ec578960008083815260200190815260200160002060080154036109d957600080828152602001908152602001600020600001600080838152602001908152602001600020600101600080848152602001908152602001600020600201600080858152602001908152602001600020600301600080868152602001908152602001600020600401600080878152602001908152602001600020600501546000808881526020019081526020016000206006015460008089815260200190815260200160002060070187805461068790610f99565b80601f01602080910402602001604051908101604052809291908181526020018280546106b390610f99565b80156107005780601f106106d557610100808354040283529160200191610700565b820191906000526020600020905b8154815290600101906020018083116106e357829003601f168201915b5050505050975086805461071390610f99565b80601f016020809104026020016040519081016040528092919081815260200182805461073f90610f99565b801561078c5780601f106107615761010080835404028352916020019161078c565b820191906000526020600020905b81548152906001019060200180831161076f57829003601f168201915b5050505050965085805461079f90610f99565b80601f01602080910402602001604051908101604052809291908181526020018280546107cb90610f99565b80156108185780601f106107ed57610100808354040283529160200191610818565b820191906000526020600020905b8154815290600101906020018083116107fb57829003601f168201915b5050505050955084805461082b90610f99565b80601f016020809104026020016040519081016040528092919081815260200182805461085790610f99565b80156108a45780601f10610879576101008083540402835291602001916108a4565b820191906000526020600020905b81548152906001019060200180831161088757829003601f168201915b505050505094508380546108b790610f99565b80601f01602080910402602001604051908101604052809291908181526020018280546108e390610f99565b80156109305780601f1061090557610100808354040283529160200191610930565b820191906000526020600020905b81548152906001019060200180831161091357829003601f168201915b5050505050935080805461094390610f99565b80601f016020809104026020016040519081016040528092919081815260200182805461096f90610f99565b80156109bc5780601f10610991576101008083540402835291602001916109bc565b820191906000526020600020905b81548152906001019060200180831161099f57829003601f168201915b505050505090509850985098509850985098509850985050610a28565b80806109e490611277565b9150506105ab565b506040517f08c379a0000000000000000000000000000000000000000000000000000000008152600401610a1f90611331565b60405180910390fd5b919395975091939597565b6000604051905090565b600080fd5b600080fd5b600080fd5b600080fd5b6000601f19601f8301169050919050565b7f4e487b7100000000000000000000000000000000000000000000000000000000600052604160045260246000fd5b610a9a82610a51565b810181811067ffffffffffffffff82111715610ab957610ab8610a62565b5b80604052505050565b6000610acc610a33565b9050610ad88282610a91565b919050565b600067ffffffffffffffff821115610af857610af7610a62565b5b610b0182610a51565b9050602081019050919050565b82818337600083830152505050565b6000610b30610b2b84610add565b610ac2565b905082815260208101848484011115610b4c57610b4b610a4c565b5b610b57848285610b0e565b509392505050565b600082601f830112610b7457610b73610a47565b5b8135610b84848260208601610b1d565b91505092915050565b6000819050919050565b610ba081610b8d565b8114610bab57600080fd5b50565b600081359050610bbd81610b97565b92915050565b60008060008060008060008060006101208a8c031215610be657610be5610a3d565b5b60008a013567ffffffffffffffff811115610c0457610c03610a42565b5b610c108c828d01610b5f565b99505060208a013567ffffffffffffffff811115610c3157610c30610a42565b5b610c3d8c828d01610b5f565b98505060408a013567ffffffffffffffff811115610c5e57610c5d610a42565b5b610c6a8c828d01610b5f565b97505060608a013567ffffffffffffffff811115610c8b57610c8a610a42565b5b610c978c828d01610b5f565b96505060808a013567ffffffffffffffff811115610cb857610cb7610a42565b5b610cc48c828d01610b5f565b95505060a0610cd58c828d01610bae565b94505060c0610ce68c828d01610bae565b93505060e08a013567ffffffffffffffff811115610d0757610d06610a42565b5b610d138c828d01610b5f565b925050610100610d258c828d01610bae565b9150509295985092959850929598565b600060208284031215610d4b57610d4a610a3d565b5b6000610d5984828501610bae565b91505092915050565b600081519050919050565b600082825260208201905092915050565b60005b83811015610d9c578082015181840152602081019050610d81565b60008484015250505050565b6000610db382610d62565b610dbd8185610d6d565b9350610dcd818560208601610d7e565b610dd681610a51565b840191505092915050565b610dea81610b8d565b82525050565b6000610120820190508181036000830152610e0b818c610da8565b90508181036020830152610e1f818b610da8565b90508181036040830152610e33818a610da8565b90508181036060830152610e478189610da8565b90508181036080830152610e5b8188610da8565b9050610e6a60a0830187610de1565b610e7760c0830186610de1565b81810360e0830152610e898185610da8565b9050610e99610100830184610de1565b9a9950505050505050505050565b6000602082019050610ebc6000830184610de1565b92915050565b6000610100820190508181036000830152610edd818b610da8565b90508181036020830152610ef1818a610da8565b90508181036040830152610f058189610da8565b90508181036060830152610f198188610da8565b90508181036080830152610f2d8187610da8565b9050610f3c60a0830186610de1565b610f4960c0830185610de1565b81810360e0830152610f5b8184610da8565b90509998505050505050505050565b7f4e487b7100000000000000000000000000000000000000000000000000000000600052602260045260246000fd5b60006002820490506001821680610fb157607f821691505b602082108103610fc457610fc3610f6a565b5b50919050565b60008190508160005260206000209050919050565b60006020601f8301049050919050565b600082821b905092915050565b60006008830261102c7fffffffffffffffffffffffffffffffffffffffffffffffffffffffffffffffff82610fef565b6110368683610fef565b95508019841693508086168417925050509392505050565b6000819050919050565b600061107361106e61106984610b8d565b61104e565b610b8d565b9050919050565b6000819050919050565b61108d83611058565b6110a16110998261107a565b848454610ffc565b825550505050565b600090565b6110b66110a9565b6110c1818484611084565b505050565b5b818110156110e5576110da6000826110ae565b6001810190506110c7565b5050565b601f82111561112a576110fb81610fca565b61110484610fdf565b81016020851015611113578190505b61112761111f85610fdf565b8301826110c6565b50505b505050565b600082821c905092915050565b600061114d6000198460080261112f565b1980831691505092915050565b6000611166838361113c565b9150826002028217905092915050565b61117f82610d62565b67ffffffffffffffff81111561119857611197610a62565b5b6111a28254610f99565b6111ad8282856110e9565b600060209050601f8311600181146111e057600084156111ce578287015190505b6111d8858261115a565b865550611240565b601f1984166111ee86610fca565b60005b82811015611216578489015182556001820191506020850194506020810190506111f1565b86831015611233578489015161122f601f89168261113c565b8355505b6001600288020188555050505b505050505050565b7f4e487b7100000000000000000000000000000000000000000000000000000000600052601160045260246000fd5b600061128282610b8d565b91507fffffffffffffffffffffffffffffffffffffffffffffffffffffffffffffffff82036112b4576112b3611248565b5b600182019050919050565b7f4e6f20636174636820666f756e6420776974682074686520737065636966696560008201527f6420626174636820494400000000000000000000000000000000000000000000602082015250565b600061131b602a83610d6d565b9150611326826112bf565b604082019050919050565b6000602082019050818103600083015261134a8161130e565b905091905056fea264697066735822122061cc2b42d4835b9aa0bc7a63c9c40d85fccda3e0b9e7e8649fd2927e14227fc564736f6c63430008110033",
  "linkReferences": {},
  "deployedLinkReferences": {}
}