{
  "_format": "hh-sol-artifact-1",
  "contractName": "ProductContract",
  "sourceName": "contracts/Packaging.sol",
  "abi": [
    {
      "anonymous": false,
      "inputs": [
        {
          "indexed": false,
          "internalType": "uint256",
          "name": "productID",
          "type": "uint256"
        }
      ],
      "name": "ProductAdded",
      "type": "event"
    },
    {
      "inputs": [
        {
          "internalType": "uint256",
          "name": "_productID",
          "type": "uint256"
        },
        {
          "internalType": "string",
          "name": "_temperature",
          "type": "string"
        },
        {
          "internalType": "string",
          "name": "_qualityAssurance",
          "type": "string"
        },
        {
          "internalType": "string",
          "name": "_packagingMaterial",
          "type": "string"
        },
        {
          "internalType": "string",
          "name": "_fssaiCode",
          "type": "string"
        },
        {
          "internalType": "string",
          "name": "_batchID",
          "type": "string"
        },
        {
          "internalType": "string",
          "name": "_handlingInstructions",
          "type": "string"
        }
      ],
      "name": "addProduct",
      "outputs": [],
      "stateMutability": "nonpayable",
      "type": "function"
    },
    {
      "inputs": [
        {
          "internalType": "uint256",
          "name": "_productID",
          "type": "uint256"
        }
      ],
      "name": "getProductDetails",
      "outputs": [
        {
          "internalType": "string",
          "name": "temperature",
          "type": "string"
        },
        {
          "internalType": "string",
          "name": "qualityAssurance",
          "type": "string"
        },
        {
          "internalType": "string",
          "name": "packagingMaterial",
          "type": "string"
        },
        {
          "internalType": "string",
          "name": "fssaiCode",
          "type": "string"
        },
        {
          "internalType": "string",
          "name": "batchID",
          "type": "string"
        },
        {
          "internalType": "string",
          "name": "handlingInstructions",
          "type": "string"
        },
        {
          "internalType": "bool",
          "name": "verified",
          "type": "bool"
        }
      ],
      "stateMutability": "view",
      "type": "function"
    },
    {
      "inputs": [
        {
          "internalType": "uint256",
          "name": "_productID",
          "type": "uint256"
        }
      ],
      "name": "verifyProduct",
      "outputs": [],
      "stateMutability": "nonpayable",
      "type": "function"
    }
  ],
  "bytecode": "0x608060405234801561001057600080fd5b50610d9d806100206000396000f3fe608060405234801561001057600080fd5b50600436106100415760003560e01c8063524e8462146100465780636813b53b14610062578063d18bbaf614610098575b600080fd5b610060600480360381019061005b919061066f565b6100b4565b005b61007c6004803603810190610077919061066f565b6100e5565b60405161008f9796959493929190610747565b60405180910390f35b6100b260048036038101906100ad9190610915565b6104df565b005b600160008083815260200190815260200160002060070160006101000a81548160ff02191690831515021790555050565b6060806060806060806000806000808a8152602001908152602001600020604051806101000160405290816000820154815260200160018201805461012990610a8e565b80601f016020809104026020016040519081016040528092919081815260200182805461015590610a8e565b80156101a25780601f10610177576101008083540402835291602001916101a2565b820191906000526020600020905b81548152906001019060200180831161018557829003601f168201915b505050505081526020016002820180546101bb90610a8e565b80601f01602080910402602001604051908101604052809291908181526020018280546101e790610a8e565b80156102345780601f1061020957610100808354040283529160200191610234565b820191906000526020600020905b81548152906001019060200180831161021757829003601f168201915b5050505050815260200160038201805461024d90610a8e565b80601f016020809104026020016040519081016040528092919081815260200182805461027990610a8e565b80156102c65780601f1061029b576101008083540402835291602001916102c6565b820191906000526020600020905b8154815290600101906020018083116102a957829003601f168201915b505050505081526020016004820180546102df90610a8e565b80601f016020809104026020016040519081016040528092919081815260200182805461030b90610a8e565b80156103585780601f1061032d57610100808354040283529160200191610358565b820191906000526020600020905b81548152906001019060200180831161033b57829003601f168201915b5050505050815260200160058201805461037190610a8e565b80601f016020809104026020016040519081016040528092919081815260200182805461039d90610a8e565b80156103ea5780601f106103bf576101008083540402835291602001916103ea565b820191906000526020600020905b8154815290600101906020018083116103cd57829003601f168201915b5050505050815260200160068201805461040390610a8e565b80601f016020809104026020016040519081016040528092919081815260200182805461042f90610a8e565b801561047c5780601f106104515761010080835404028352916020019161047c565b820191906000526020600020905b81548152906001019060200180831161045f57829003601f168201915b505050505081526020016007820160009054906101000a900460ff1615151515815250509050806020015197508060400151965080606001519550806080015194508060a0015193508060c0015192508060e00151915050919395979092949650565b6000604051806101000160405280898152602001888152602001878152602001868152602001858152602001848152602001838152602001600015158152509050806000808a81526020019081526020016000206000820151816000015560208201518160010190816105529190610c6b565b5060408201518160020190816105689190610c6b565b50606082015181600301908161057e9190610c6b565b5060808201518160040190816105949190610c6b565b5060a08201518160050190816105aa9190610c6b565b5060c08201518160060190816105c09190610c6b565b5060e08201518160070160006101000a81548160ff0219169083151502179055509050507f4fc9d5acc453e78e01b205af5788a1c62f195c4b5cdc8eb8f1c670863b7e736a886040516106139190610d4c565b60405180910390a15050505050505050565b6000604051905090565b600080fd5b600080fd5b6000819050919050565b61064c81610639565b811461065757600080fd5b50565b60008135905061066981610643565b92915050565b6000602082840312156106855761068461062f565b5b60006106938482850161065a565b91505092915050565b600081519050919050565b600082825260208201905092915050565b60005b838110156106d65780820151818401526020810190506106bb565b60008484015250505050565b6000601f19601f8301169050919050565b60006106fe8261069c565b61070881856106a7565b93506107188185602086016106b8565b610721816106e2565b840191505092915050565b60008115159050919050565b6107418161072c565b82525050565b600060e0820190508181036000830152610761818a6106f3565b9050818103602083015261077581896106f3565b9050818103604083015261078981886106f3565b9050818103606083015261079d81876106f3565b905081810360808301526107b181866106f3565b905081810360a08301526107c581856106f3565b90506107d460c0830184610738565b98975050505050505050565b600080fd5b600080fd5b7f4e487b7100000000000000000000000000000000000000000000000000000000600052604160045260246000fd5b610822826106e2565b810181811067ffffffffffffffff82111715610841576108406107ea565b5b80604052505050565b6000610854610625565b90506108608282610819565b919050565b600067ffffffffffffffff8211156108805761087f6107ea565b5b610889826106e2565b9050602081019050919050565b82818337600083830152505050565b60006108b86108b384610865565b61084a565b9050828152602081018484840111156108d4576108d36107e5565b5b6108df848285610896565b509392505050565b600082601f8301126108fc576108fb6107e0565b5b813561090c8482602086016108a5565b91505092915050565b600080600080600080600060e0888a0312156109345761093361062f565b5b60006109428a828b0161065a565b975050602088013567ffffffffffffffff81111561096357610962610634565b5b61096f8a828b016108e7565b965050604088013567ffffffffffffffff8111156109905761098f610634565b5b61099c8a828b016108e7565b955050606088013567ffffffffffffffff8111156109bd576109bc610634565b5b6109c98a828b016108e7565b945050608088013567ffffffffffffffff8111156109ea576109e9610634565b5b6109f68a828b016108e7565b93505060a088013567ffffffffffffffff811115610a1757610a16610634565b5b610a238a828b016108e7565b92505060c088013567ffffffffffffffff811115610a4457610a43610634565b5b610a508a828b016108e7565b91505092959891949750929550565b7f4e487b7100000000000000000000000000000000000000000000000000000000600052602260045260246000fd5b60006002820490506001821680610aa657607f821691505b602082108103610ab957610ab8610a5f565b5b50919050565b60008190508160005260206000209050919050565b60006020601f8301049050919050565b600082821b905092915050565b600060088302610b217fffffffffffffffffffffffffffffffffffffffffffffffffffffffffffffffff82610ae4565b610b2b8683610ae4565b95508019841693508086168417925050509392505050565b6000819050919050565b6000610b68610b63610b5e84610639565b610b43565b610639565b9050919050565b6000819050919050565b610b8283610b4d565b610b96610b8e82610b6f565b848454610af1565b825550505050565b600090565b610bab610b9e565b610bb6818484610b79565b505050565b5b81811015610bda57610bcf600082610ba3565b600181019050610bbc565b5050565b601f821115610c1f57610bf081610abf565b610bf984610ad4565b81016020851015610c08578190505b610c1c610c1485610ad4565b830182610bbb565b50505b505050565b600082821c905092915050565b6000610c4260001984600802610c24565b1980831691505092915050565b6000610c5b8383610c31565b9150826002028217905092915050565b610c748261069c565b67ffffffffffffffff811115610c8d57610c8c6107ea565b5b610c978254610a8e565b610ca2828285610bde565b600060209050601f831160018114610cd55760008415610cc3578287015190505b610ccd8582610c4f565b865550610d35565b601f198416610ce386610abf565b60005b82811015610d0b57848901518255600182019150602085019450602081019050610ce6565b86831015610d285784890151610d24601f891682610c31565b8355505b6001600288020188555050505b505050505050565b610d4681610639565b82525050565b6000602082019050610d616000830184610d3d565b9291505056fea2646970667358221220e9e6d3d2e5a0dc3b4a153a0a56d9281e884cada5db8f9c46915129f5c22bc20564736f6c63430008120033",
  "linkReferences": {},
  "deployedLinkReferences": {}
}