{
  "_format": "hh-sol-artifact-1",
  "contractName": "SeafoodSupplyChain",
  "sourceName": "contracts/SeafoodSupplyChain.sol",
  "abi": [
    {
      "inputs": [
        {
          "internalType": "uint256",
          "name": "_batchId",
          "type": "uint256"
        }
      ],
      "name": "getShipmentLocations",
      "outputs": [
        {
          "components": [
            {
              "internalType": "uint256",
              "name": "shipmentId",
              "type": "uint256"
            },
            {
              "internalType": "uint256",
              "name": "batchId",
              "type": "uint256"
            },
            {
              "internalType": "string",
              "name": "location",
              "type": "string"
            },
            {
              "internalType": "uint256",
              "name": "date",
              "type": "uint256"
            },
            {
              "internalType": "uint256",
              "name": "timestamp",
              "type": "uint256"
            }
          ],
          "internalType": "struct SeafoodSupplyChain.ShipmentLocation[]",
          "name": "",
          "type": "tuple[]"
        }
      ],
      "stateMutability": "view",
      "type": "function"
    },
    {
      "inputs": [
        {
          "internalType": "uint256",
          "name": "_shipmentId",
          "type": "uint256"
        },
        {
          "internalType": "address",
          "name": "_processor",
          "type": "address"
        },
        {
          "internalType": "address",
          "name": "_distributor",
          "type": "address"
        },
        {
          "internalType": "address",
          "name": "_recipient",
          "type": "address"
        },
        {
          "internalType": "uint256",
          "name": "_batchId",
          "type": "uint256"
        }
      ],
      "name": "initiateShipment",
      "outputs": [],
      "stateMutability": "nonpayable",
      "type": "function"
    },
    {
      "inputs": [
        {
          "internalType": "uint256",
          "name": "",
          "type": "uint256"
        },
        {
          "internalType": "uint256",
          "name": "",
          "type": "uint256"
        }
      ],
      "name": "shipmentLocations",
      "outputs": [
        {
          "internalType": "uint256",
          "name": "shipmentId",
          "type": "uint256"
        },
        {
          "internalType": "uint256",
          "name": "batchId",
          "type": "uint256"
        },
        {
          "internalType": "string",
          "name": "location",
          "type": "string"
        },
        {
          "internalType": "uint256",
          "name": "date",
          "type": "uint256"
        },
        {
          "internalType": "uint256",
          "name": "timestamp",
          "type": "uint256"
        }
      ],
      "stateMutability": "view",
      "type": "function"
    },
    {
      "inputs": [
        {
          "internalType": "uint256",
          "name": "",
          "type": "uint256"
        }
      ],
      "name": "shipments",
      "outputs": [
        {
          "internalType": "uint256",
          "name": "shipmentId",
          "type": "uint256"
        },
        {
          "internalType": "address",
          "name": "processor",
          "type": "address"
        },
        {
          "internalType": "address",
          "name": "distributor",
          "type": "address"
        },
        {
          "internalType": "address",
          "name": "recipient",
          "type": "address"
        },
        {
          "internalType": "enum SeafoodSupplyChain.TransitState",
          "name": "state",
          "type": "uint8"
        },
        {
          "internalType": "uint256",
          "name": "batchId",
          "type": "uint256"
        }
      ],
      "stateMutability": "view",
      "type": "function"
    },
    {
      "inputs": [
        {
          "internalType": "uint256",
          "name": "_shipmentId",
          "type": "uint256"
        },
        {
          "internalType": "uint256",
          "name": "_batchId",
          "type": "uint256"
        },
        {
          "internalType": "string",
          "name": "_location",
          "type": "string"
        }
      ],
      "name": "updateShipmentLocation",
      "outputs": [],
      "stateMutability": "nonpayable",
      "type": "function"
    }
  ],
  "bytecode": "0x608060405234801561001057600080fd5b50611492806100206000396000f3fe608060405234801561001057600080fd5b50600436106100575760003560e01c80632ac08a931461005c5780637f4f967d14610091578063aef545eb146100ad578063d395503c146100dd578063da1ad699146100f9575b600080fd5b61007660048036038101906100719190610983565b61012d565b60405161008896959493929190610a77565b60405180910390f35b6100ab60048036038101906100a69190610c1e565b6101d6565b005b6100c760048036038101906100c29190610983565b6102d5565b6040516100d49190610e53565b60405180910390f35b6100f760048036038101906100f29190610ea1565b6105a0565b005b610113600480360381019061010e9190610f1c565b61082f565b604051610124959493929190610fa6565b60405180910390f35b60006020528060005260406000206000915090508060000154908060010160009054906101000a900473ffffffffffffffffffffffffffffffffffffffff16908060020160009054906101000a900473ffffffffffffffffffffffffffffffffffffffff16908060030160009054906101000a900473ffffffffffffffffffffffffffffffffffffffff16908060030160149054906101000a900460ff16908060040154905086565b82600080858152602001908152602001600020600001541461022d576040517f08c379a00000000000000000000000000000000000000000000000000000000081526004016102249061104c565b60405180910390fd5b600160008481526020019081526020016000206040518060a00160405280858152602001848152602001838152602001428152602001428152509080600181540180825580915050600190039060005260206000209060050201600090919091909150600082015181600001556020820151816001015560408201518160020190816102b99190611278565b5060608201518160030155608082015181600401555050505050565b6060600060016000848152602001908152602001600020805480602002602001604051908101604052809291908181526020016000905b828210156103f857838290600052602060002090600502016040518060a001604052908160008201548152602001600182015481526020016002820180546103539061109b565b80601f016020809104026020016040519081016040528092919081815260200182805461037f9061109b565b80156103cc5780601f106103a1576101008083540402835291602001916103cc565b820191906000526020600020905b8154815290600101906020018083116103af57829003601f168201915b50505050508152602001600382015481526020016004820154815250508152602001906001019061030c565b5050505090506000815111610442576040517f08c379a000000000000000000000000000000000000000000000000000000000815260040161043990611396565b60405180910390fd5b6000815167ffffffffffffffff81111561045f5761045e610af3565b5b60405190808252806020026020018201604052801561049857816020015b61048561090a565b81526020019060019003908161047d5790505b50905060005b8251811015610595576040518060a001604052808483815181106104c5576104c46113b6565b5b60200260200101516000015181526020018483815181106104e9576104e86113b6565b5b602002602001015160200151815260200184838151811061050d5761050c6113b6565b5b6020026020010151604001518152602001848381518110610531576105306113b6565b5b6020026020010151606001518152602001848381518110610555576105546113b6565b5b602002602001015160800151815250828281518110610577576105766113b6565b5b6020026020010181905250808061058d90611414565b91505061049e565b508092505050919050565b6040518060c001604052808681526020018573ffffffffffffffffffffffffffffffffffffffff1681526020018473ffffffffffffffffffffffffffffffffffffffff1681526020018373ffffffffffffffffffffffffffffffffffffffff1681526020016000600281111561061957610618610a00565b5b8152602001828152506000808781526020019081526020016000206000820151816000015560208201518160010160006101000a81548173ffffffffffffffffffffffffffffffffffffffff021916908373ffffffffffffffffffffffffffffffffffffffff16021790555060408201518160020160006101000a81548173ffffffffffffffffffffffffffffffffffffffff021916908373ffffffffffffffffffffffffffffffffffffffff16021790555060608201518160030160006101000a81548173ffffffffffffffffffffffffffffffffffffffff021916908373ffffffffffffffffffffffffffffffffffffffff16021790555060808201518160030160146101000a81548160ff0219169083600281111561073e5761073d610a00565b5b021790555060a08201518160040155905050600160008681526020019081526020016000206040518060a001604052808781526020018381526020016040518060400160405280600981526020017f50726f636573736f7200000000000000000000000000000000000000000000008152508152602001428152602001428152509080600181540180825580915050600190039060005260206000209060050201600090919091909150600082015181600001556020820151816001015560408201518160020190816108119190611278565b50606082015181600301556080820151816004015550505050505050565b6001602052816000526040600020818154811061084b57600080fd5b90600052602060002090600502016000915091505080600001549080600101549080600201805461087b9061109b565b80601f01602080910402602001604051908101604052809291908181526020018280546108a79061109b565b80156108f45780601f106108c9576101008083540402835291602001916108f4565b820191906000526020600020905b8154815290600101906020018083116108d757829003601f168201915b5050505050908060030154908060040154905085565b6040518060a0016040528060008152602001600081526020016060815260200160008152602001600081525090565b6000604051905090565b600080fd5b600080fd5b6000819050919050565b6109608161094d565b811461096b57600080fd5b50565b60008135905061097d81610957565b92915050565b60006020828403121561099957610998610943565b5b60006109a78482850161096e565b91505092915050565b6109b98161094d565b82525050565b600073ffffffffffffffffffffffffffffffffffffffff82169050919050565b60006109ea826109bf565b9050919050565b6109fa816109df565b82525050565b7f4e487b7100000000000000000000000000000000000000000000000000000000600052602160045260246000fd5b60038110610a4057610a3f610a00565b5b50565b6000819050610a5182610a2f565b919050565b6000610a6182610a43565b9050919050565b610a7181610a56565b82525050565b600060c082019050610a8c60008301896109b0565b610a9960208301886109f1565b610aa660408301876109f1565b610ab360608301866109f1565b610ac06080830185610a68565b610acd60a08301846109b0565b979650505050505050565b600080fd5b600080fd5b6000601f19601f8301169050919050565b7f4e487b7100000000000000000000000000000000000000000000000000000000600052604160045260246000fd5b610b2b82610ae2565b810181811067ffffffffffffffff82111715610b4a57610b49610af3565b5b80604052505050565b6000610b5d610939565b9050610b698282610b22565b919050565b600067ffffffffffffffff821115610b8957610b88610af3565b5b610b9282610ae2565b9050602081019050919050565b82818337600083830152505050565b6000610bc1610bbc84610b6e565b610b53565b905082815260208101848484011115610bdd57610bdc610add565b5b610be8848285610b9f565b509392505050565b600082601f830112610c0557610c04610ad8565b5b8135610c15848260208601610bae565b91505092915050565b600080600060608486031215610c3757610c36610943565b5b6000610c458682870161096e565b9350506020610c568682870161096e565b925050604084013567ffffffffffffffff811115610c7757610c76610948565b5b610c8386828701610bf0565b9150509250925092565b600081519050919050565b600082825260208201905092915050565b6000819050602082019050919050565b610cc28161094d565b82525050565b600081519050919050565b600082825260208201905092915050565b60005b83811015610d02578082015181840152602081019050610ce7565b60008484015250505050565b6000610d1982610cc8565b610d238185610cd3565b9350610d33818560208601610ce4565b610d3c81610ae2565b840191505092915050565b600060a083016000830151610d5f6000860182610cb9565b506020830151610d726020860182610cb9565b5060408301518482036040860152610d8a8282610d0e565b9150506060830151610d9f6060860182610cb9565b506080830151610db26080860182610cb9565b508091505092915050565b6000610dc98383610d47565b905092915050565b6000602082019050919050565b6000610de982610c8d565b610df38185610c98565b935083602082028501610e0585610ca9565b8060005b85811015610e415784840389528151610e228582610dbd565b9450610e2d83610dd1565b925060208a01995050600181019050610e09565b50829750879550505050505092915050565b60006020820190508181036000830152610e6d8184610dde565b905092915050565b610e7e816109df565b8114610e8957600080fd5b50565b600081359050610e9b81610e75565b92915050565b600080600080600060a08688031215610ebd57610ebc610943565b5b6000610ecb8882890161096e565b9550506020610edc88828901610e8c565b9450506040610eed88828901610e8c565b9350506060610efe88828901610e8c565b9250506080610f0f8882890161096e565b9150509295509295909350565b60008060408385031215610f3357610f32610943565b5b6000610f418582860161096e565b9250506020610f528582860161096e565b9150509250929050565b600082825260208201905092915050565b6000610f7882610cc8565b610f828185610f5c565b9350610f92818560208601610ce4565b610f9b81610ae2565b840191505092915050565b600060a082019050610fbb60008301886109b0565b610fc860208301876109b0565b8181036040830152610fda8186610f6d565b9050610fe960608301856109b0565b610ff660808301846109b0565b9695505050505050565b7f536869706d656e7420646f6573206e6f74206578697374000000000000000000600082015250565b6000611036601783610f5c565b915061104182611000565b602082019050919050565b6000602082019050818103600083015261106581611029565b9050919050565b7f4e487b7100000000000000000000000000000000000000000000000000000000600052602260045260246000fd5b600060028204905060018216806110b357607f821691505b6020821081036110c6576110c561106c565b5b50919050565b60008190508160005260206000209050919050565b60006020601f8301049050919050565b600082821b905092915050565b60006008830261112e7fffffffffffffffffffffffffffffffffffffffffffffffffffffffffffffffff826110f1565b61113886836110f1565b95508019841693508086168417925050509392505050565b6000819050919050565b600061117561117061116b8461094d565b611150565b61094d565b9050919050565b6000819050919050565b61118f8361115a565b6111a361119b8261117c565b8484546110fe565b825550505050565b600090565b6111b86111ab565b6111c3818484611186565b505050565b5b818110156111e7576111dc6000826111b0565b6001810190506111c9565b5050565b601f82111561122c576111fd816110cc565b611206846110e1565b81016020851015611215578190505b611229611221856110e1565b8301826111c8565b50505b505050565b600082821c905092915050565b600061124f60001984600802611231565b1980831691505092915050565b6000611268838361123e565b9150826002028217905092915050565b61128182610cc8565b67ffffffffffffffff81111561129a57611299610af3565b5b6112a4825461109b565b6112af8282856111eb565b600060209050601f8311600181146112e257600084156112d0578287015190505b6112da858261125c565b865550611342565b601f1984166112f0866110cc565b60005b82811015611318578489015182556001820191506020850194506020810190506112f3565b868310156113355784890151611331601f89168261123e565b8355505b6001600288020188555050505b505050505050565b7f4e6f206c6f636174696f6e7320666f756e6420666f7220626174636820494400600082015250565b6000611380601f83610f5c565b915061138b8261134a565b602082019050919050565b600060208201905081810360008301526113af81611373565b9050919050565b7f4e487b7100000000000000000000000000000000000000000000000000000000600052603260045260246000fd5b7f4e487b7100000000000000000000000000000000000000000000000000000000600052601160045260246000fd5b600061141f8261094d565b91507fffffffffffffffffffffffffffffffffffffffffffffffffffffffffffffffff8203611451576114506113e5565b5b60018201905091905056fea26469706673582212207c02911fec794d77ea87af7436ec36304a472935b652ff18d5eae4c6eb0e0fee64736f6c63430008120033",
  "linkReferences": {},
  "deployedLinkReferences": {}
}