{
  "_format": "hh-sol-artifact-1",
  "contractName": "SupplyChain",
  "sourceName": "contracts/logistic.sol",
  "abi": [
    {
      "anonymous": false,
      "inputs": [
        {
          "indexed": false,
          "internalType": "uint256",
          "name": "index",
          "type": "uint256"
        }
      ],
      "name": "Added",
      "type": "event"
    },
    {
      "inputs": [
        {
          "internalType": "uint256",
          "name": "_productId",
          "type": "uint256"
        },
        {
          "internalType": "string",
          "name": "info",
          "type": "string"
        }
      ],
      "name": "addState",
      "outputs": [
        {
          "internalType": "string",
          "name": "",
          "type": "string"
        }
      ],
      "stateMutability": "nonpayable",
      "type": "function"
    },
    {
      "inputs": [
        {
          "internalType": "string",
          "name": "_a",
          "type": "string"
        },
        {
          "internalType": "string",
          "name": "_b",
          "type": "string"
        }
      ],
      "name": "concat",
      "outputs": [
        {
          "internalType": "string",
          "name": "",
          "type": "string"
        }
      ],
      "stateMutability": "nonpayable",
      "type": "function"
    },
    {
      "inputs": [
        {
          "internalType": "string",
          "name": "_text",
          "type": "string"
        },
        {
          "internalType": "string",
          "name": "_date",
          "type": "string"
        }
      ],
      "name": "newItem",
      "outputs": [
        {
          "internalType": "bool",
          "name": "",
          "type": "bool"
        }
      ],
      "stateMutability": "nonpayable",
      "type": "function"
    },
    {
      "inputs": [
        {
          "internalType": "uint256",
          "name": "_productId",
          "type": "uint256"
        }
      ],
      "name": "searchProduct",
      "outputs": [
        {
          "internalType": "string",
          "name": "",
          "type": "string"
        }
      ],
      "stateMutability": "nonpayable",
      "type": "function"
    }
  ],
  "bytecode": "0x6080604052600060025534801561001557600080fd5b5061111e806100256000396000f3fe608060405234801561001057600080fd5b506004361061004c5760003560e01c80633cde01b514610051578063453bccb61461008157806389c19ddb146100b1578063a3d835c0146100e1575b600080fd5b61006b600480360381019061006691906109b4565b610111565b6040516100789190610a71565b60405180910390f35b61009b60048036038101906100969190610bc8565b61045b565b6040516100a89190610a71565b60405180910390f35b6100cb60048036038101906100c69190610c24565b6105b5565b6040516100d89190610a71565b60405180910390f35b6100fb60048036038101906100f69190610c24565b61074b565b6040516101089190610cb7565b60405180910390f35b6060600254821061012157600080fd5b60006040518060400160405280600e81526020017f50726f64756374204e616d653a20000000000000000000000000000000000000815250905061020281600080868152602001908152602001600020600101805461017f90610d01565b80601f01602080910402602001604051908101604052809291908181526020018280546101ab90610d01565b80156101f85780601f106101cd576101008083540402835291602001916101f8565b820191906000526020600020905b8154815290600101906020018083116101db57829003601f168201915b50505050506105b5565b9050610243816040518060400160405280601681526020017f3c62723e4d616e756661637475726520446174653a20000000000000000000008152506105b5565b90506102ec81600080868152602001908152602001600020600301805461026990610d01565b80601f016020809104026020016040519081016040528092919081815260200182805461029590610d01565b80156102e25780601f106102b7576101008083540402835291602001916102e2565b820191906000526020600020905b8154815290600101906020018083116102c557829003601f168201915b50505050506105b5565b9050600080600085815260200190815260200160002060050180548060200260200160405190810160405280929190818152602001828054801561034f57602002820191906000526020600020905b81548152602001906001019080831161033b575b5050505050905060005b815181101561045057600082828151811061037757610376610d32565b5b6020026020010151905061043a8460016000898152602001908152602001600020600084815260200190815260200160002060000180546103b790610d01565b80601f01602080910402602001604051908101604052809291908181526020018280546103e390610d01565b80156104305780601f1061040557610100808354040283529160200191610430565b820191906000526020600020905b81548152906001019060200180831161041357829003601f168201915b50505050506105b5565b935050808061044890610d90565b915050610359565b508192505050919050565b6060600254831061046b57600080fd5b600080600085815260200190815260200160002060040154905060405180604001604052808481526020013373ffffffffffffffffffffffffffffffffffffffff1681525060016000868152602001908152602001600020600083815260200190815260200160002060008201518160000190816104e99190610f84565b5060208201518160010160006101000a81548173ffffffffffffffffffffffffffffffffffffffff021916908373ffffffffffffffffffffffffffffffffffffffff1602179055509050506000808581526020019081526020016000206005018190806001815401808255809150506001900390600052602060002001600090919091909150556001600080868152602001908152602001600020600401546105929190611056565b600080868152602001908152602001600020600401819055508291505092915050565b6060600083905060008390506000815183516105d19190611056565b67ffffffffffffffff8111156105ea576105e9610a9d565b5b6040519080825280601f01601f19166020018201604052801561061c5781602001600182028036833780820191505090505b50905060008190506000805b85518110156106b05785818151811061064457610643610d32565b5b602001015160f81c60f81b83838061065b90610d90565b94508151811061066e5761066d610d32565b5b60200101907effffffffffffffffffffffffffffffffffffffffffffffffffffffffffffff1916908160001a90535080806106a890610d90565b915050610628565b5060005b845181101561073c578481815181106106d0576106cf610d32565b5b602001015160f81c60f81b8383806106e790610d90565b9450815181106106fa576106f9610d32565b5b60200101907effffffffffffffffffffffffffffffffffffffffffffffffffffffffffffff1916908160001a905350808061073490610d90565b9150506106b4565b50819550505050505092915050565b6000806040518060c001604052803373ffffffffffffffffffffffffffffffffffffffff168152602001858152602001600254815260200184815260200160008152602001600067ffffffffffffffff8111156107ab576107aa610a9d565b5b6040519080825280602002602001820160405280156107d95781602001602082028036833780820191505090505b50815250905080600080600254815260200190815260200160002060008201518160000160006101000a81548173ffffffffffffffffffffffffffffffffffffffff021916908373ffffffffffffffffffffffffffffffffffffffff16021790555060208201518160010190816108509190610f84565b506040820151816002015560608201518160030190816108709190610f84565b506080820151816004015560a0820151816005019080519060200190610897929190610900565b5090505060016002546108aa9190611056565b6002819055507f64a55044d1f2eddebe1b90e8e2853e8e96931cefadbfa0b2ceb34bee3606194160016002546108e0919061108a565b6040516108ed91906110cd565b60405180910390a1600191505092915050565b82805482825590600052602060002090810192821561093c579160200282015b8281111561093b578251825591602001919060010190610920565b5b509050610949919061094d565b5090565b5b8082111561096657600081600090555060010161094e565b5090565b6000604051905090565b600080fd5b600080fd5b6000819050919050565b6109918161097e565b811461099c57600080fd5b50565b6000813590506109ae81610988565b92915050565b6000602082840312156109ca576109c9610974565b5b60006109d88482850161099f565b91505092915050565b600081519050919050565b600082825260208201905092915050565b60005b83811015610a1b578082015181840152602081019050610a00565b60008484015250505050565b6000601f19601f8301169050919050565b6000610a43826109e1565b610a4d81856109ec565b9350610a5d8185602086016109fd565b610a6681610a27565b840191505092915050565b60006020820190508181036000830152610a8b8184610a38565b905092915050565b600080fd5b600080fd5b7f4e487b7100000000000000000000000000000000000000000000000000000000600052604160045260246000fd5b610ad582610a27565b810181811067ffffffffffffffff82111715610af457610af3610a9d565b5b80604052505050565b6000610b0761096a565b9050610b138282610acc565b919050565b600067ffffffffffffffff821115610b3357610b32610a9d565b5b610b3c82610a27565b9050602081019050919050565b82818337600083830152505050565b6000610b6b610b6684610b18565b610afd565b905082815260208101848484011115610b8757610b86610a98565b5b610b92848285610b49565b509392505050565b600082601f830112610baf57610bae610a93565b5b8135610bbf848260208601610b58565b91505092915050565b60008060408385031215610bdf57610bde610974565b5b6000610bed8582860161099f565b925050602083013567ffffffffffffffff811115610c0e57610c0d610979565b5b610c1a85828601610b9a565b9150509250929050565b60008060408385031215610c3b57610c3a610974565b5b600083013567ffffffffffffffff811115610c5957610c58610979565b5b610c6585828601610b9a565b925050602083013567ffffffffffffffff811115610c8657610c85610979565b5b610c9285828601610b9a565b9150509250929050565b60008115159050919050565b610cb181610c9c565b82525050565b6000602082019050610ccc6000830184610ca8565b92915050565b7f4e487b7100000000000000000000000000000000000000000000000000000000600052602260045260246000fd5b60006002820490506001821680610d1957607f821691505b602082108103610d2c57610d2b610cd2565b5b50919050565b7f4e487b7100000000000000000000000000000000000000000000000000000000600052603260045260246000fd5b7f4e487b7100000000000000000000000000000000000000000000000000000000600052601160045260246000fd5b6000610d9b8261097e565b91507fffffffffffffffffffffffffffffffffffffffffffffffffffffffffffffffff8203610dcd57610dcc610d61565b5b600182019050919050565b60008190508160005260206000209050919050565b60006020601f8301049050919050565b600082821b905092915050565b600060088302610e3a7fffffffffffffffffffffffffffffffffffffffffffffffffffffffffffffffff82610dfd565b610e448683610dfd565b95508019841693508086168417925050509392505050565b6000819050919050565b6000610e81610e7c610e778461097e565b610e5c565b61097e565b9050919050565b6000819050919050565b610e9b83610e66565b610eaf610ea782610e88565b848454610e0a565b825550505050565b600090565b610ec4610eb7565b610ecf818484610e92565b505050565b5b81811015610ef357610ee8600082610ebc565b600181019050610ed5565b5050565b601f821115610f3857610f0981610dd8565b610f1284610ded565b81016020851015610f21578190505b610f35610f2d85610ded565b830182610ed4565b50505b505050565b600082821c905092915050565b6000610f5b60001984600802610f3d565b1980831691505092915050565b6000610f748383610f4a565b9150826002028217905092915050565b610f8d826109e1565b67ffffffffffffffff811115610fa657610fa5610a9d565b5b610fb08254610d01565b610fbb828285610ef7565b600060209050601f831160018114610fee5760008415610fdc578287015190505b610fe68582610f68565b86555061104e565b601f198416610ffc86610dd8565b60005b8281101561102457848901518255600182019150602085019450602081019050610fff565b86831015611041578489015161103d601f891682610f4a565b8355505b6001600288020188555050505b505050505050565b60006110618261097e565b915061106c8361097e565b925082820190508082111561108457611083610d61565b5b92915050565b60006110958261097e565b91506110a08361097e565b92508282039050818111156110b8576110b7610d61565b5b92915050565b6110c78161097e565b82525050565b60006020820190506110e260008301846110be565b9291505056fea2646970667358221220244b8266d686c174057b869296143f6d72458ba250b209f5517285de091528a564736f6c63430008120033",
  "linkReferences": {},
  "deployedLinkReferences": {}
}